:100000000C94C0020C94F1020C94F1020C94F102D5
:100010000C94F1020C94B0030C94F1020C94F102D4
:100020000C94F1020C94F1020C94F1020C94F10284
:100030000C94F1020C94F1020C94F1020C94F10274
:100040000C94F1020C94F1020C94F1020C94F10264
:100050000C94F1020C94F1020C94F1020C945C21CA
:100060000C94F1020C946E1B0C94A41B0C94F102E2
:100070000C94F1020C94F1020C94F1020C94F10234
:100080000C94F1020C94F1020C94F1020C94F10224
:100090000C94111C0C94471C0C94F1020C940A252E
:1000A0000C94F1020C94F1020C94F1020C94F10204
:1000B0000C94F1020C94F1020C94F1020C94F102F4
:1000C0000C94F1020C94F1020C94F1020C94B41C07
:1000D0000C94EA1C0C94F1020C94571D0C948D1D89
:1000E0000C94F10282228522742278227E22BC2284
:1000F00089228D22932297229B22A122A522A92226
:10010000BC22AF22B322B7220C9423120C948B266C
:100110000C946C260C9495260C94F3020C947B0C96
:100120000C94B71D0C9480230C948D220C947E2289
:100130000C941B1A0C9477120C94BC220C94262A53
:100140000C94A5220C94A1220C9428040C94392719
:100150000C9474220C9478220C94711C0C948522BB
:100160000C9460340C9470230C94AD230C947F2376
:100170000C9451180C948B1A0C9451260C94341A2C
:100180000C9493220C9428240C9489220C94CE1B5A
:100190000C94B3220C943B260C9411190C948727D1
:1001A0000C94691A0C949B220C94171A0C94A716A1
:1001B0000C94141D0C94FA1D0C940D1A0C948222AC
:1001C0000C94C1040C940B040C9497220C945523AA
:1001D0000C94B7220C94EA140C94F1040C945D2353
:1001E0000C94A9220C94A3060C94261A0C94402D6E
:1001F0000C94AF2241515541204D6F6E69746F725E
:100200002028666F722074657374696E67206F6E44
:100210006C79290000004F00000003000300143E29
:10022000143E14242A7F2A12631308646336495546
:1002300022500000070000001C2241000041221C47
:10024000000A041F040A04041F04045030000000C4
:100250000808080808606000000000601C03003EF9
:100260004149413E00027F00004661514946214913
:100270004D4B311814127F104F494949313E5149B5
:1002800049320101710D0336494949362649494928
:100290003E003333000000533300000008142241B5
:1002A0001414141414412214080006015109063EC6
:1002B0004149151E78161116787F494949363E4145
:1002C0004141227F4141413E7F494949497F0909D6
:1002D00009093E4141497B7F0808087F00007F00F3
:1002E00000384040413F7F080814637F4040404051
:1002F0007F0618067F7F0618607F3E4141413E7FA2
:10030000090909063E4151215E7F091929462649FE
:1003100049493201017F01013F4040407F0F304099
:10032000300F1F601C601F631408146303047804FB
:10033000036151494543007F410000031C600000F8
:1003400000417F00000C0201020C40404040400090
:100350000102040020545454787F484444383844FF
:10036000444444384444487F3854545418087E095F
:1003700009000C5252543E7F0804047800007D00AE
:100380000000403D00007F1028440000003F400076
:100390007C041804787C0804047838444444387F8A
:1003A0001211110E0E1111127F007C080404485422
:1003B000545424043E4444003C4040207C1C2040D3
:1003C000201C1C6018601C44281028444628100873
:1003D000064464544C44000877410000007F00004C
:1003E000004177080010081810081F1C1F1E1F1E50
:1003F0001F1F1E1F1E1F00000A0B02090C0D0E08F6
:1004000007030401000000000000000000000000DD
:1004100000000000000000000000000000000000DC
:100420000000121110000000000000000000000099
:100430000000000000000000000000000102102089
:10044000200808102040102040800201020108040A
:10045000020101020408102040808040201008049E
:1004600002018004020180402010080402010804F7
:10047000020101020408102040800102040810203B
:100480004080050505050705080808080202020264
:100490000A0A080804040404010101010101010120
:1004A0000303030303030303040707070C0C0C0CEB
:1004B0000C0C0C0C020202020606060606060606D4
:1004C0000B0B0B0B0B0B0B0B00002000230026006B
:1004D00029002C002F00320000010000030106015A
:1004E000090100002200250028002B002E00310009
:1004F000340002010000050108010B010000210089
:10050000240027002A002D003000330001010000E4
:10051000040107010A017C3C3E5E2B3D3F2F5B5DE1
:100520003B2C2A225C004E414E494E495459494EBB
:1005300046CDCCCC3D0AD7233C17B7D13877CC2B4E
:10054000329595E6241FB14F0A000020410000C8F3
:100550004200401C4620BCBE4CCA1B0E5AAEC59D74
:1005600074000B04C104A3067B0C771211190D1A39
:10057000CE1B711C141DB71D2824262A402D171AC6
:1005800011241FBECFEFD1E2DEBFCDBF00E00CBF14
:1005900016E0A0E0B2E0E2ECFFE700E00BBF02C033
:1005A00007900D92A638B107D9F72CE0A6E8B6E07F
:1005B00001C01D92A43FB207E1F715E0CEE7D5E0F8
:1005C00000E006C022970109FE010BBF0E94983986
:1005D000C236D10780E00807A9F70E94B3190C942E
:1005E000CF3F0C9400006FE072E088E597E00E9436
:1005F000551E41E061EC76E089E097E00E94200C16
:1006000040E06DEB76E089E097E00E94200C40E04E
:1006100069EB76E089E097E00E94200C40E065EB12
:1006200076E089E097E00C94200C4093C10650934B
:10063000C2066093C3067093C40608954093BD0636
:100640005093BE066093BF067093C0060895409312
:10065000B9065093BA066093BB067093BC06089522
:100660004093B5065093B6066093B7067093B806EC
:1006700008958DB11DB8749AEAE6F0E08081826039
:100680008083EC9A78940895CF93DF93EC0140E453
:1006900060E886E896E00E941D111092C106109253
:1006A000C2061092C3061092C4061092BD061092A4
:1006B000BE061092BF061092C0061092B9061092A4
:1006C000BA061092BB061092BC061092B5061092A4
:1006D000B6061092B7061092B80689E097E00E941D
:1006E000980CCE010E94390389E097E00E94770CB4
:1006F000282F8091980690919906233089F038F43C
:100700002130C1F440E65AEE60E070E017C02430BA
:1007100061F0253079F440E85EEE66E370E00EC0EB
:1007200040EA5BEB6DE070E009C040E457E76BE145
:1007300070E004C040EE53E964E070E00E942514CC
:1007400063EF72E080919806909199060E942E14B2
:100750008091980690919906DF91CF910C94321474
:100760001F920F920FB60F9211240BB60F922F9378
:100770003F934F935F936F937F938F939F93AF9329
:10078000BF93EF93FF938FE39CE90197F1F700C0CC
:100790000000649927C08091C1069091C206A09183
:1007A000C306B091C4060196A11DB11D8093C10678
:1007B0009093C206A093C306B093C40668E272E0A9
:1007C00088E597E00E94381E4091C1065091C2060C
:1007D0006091C3067091C4062AE030E088E597E096
:1007E0000E943B1FFF91EF91BF91AF919F918F911D
:1007F0007F916F915F914F913F912F910F900BBE21
:100800000F900FBE0F901F901895809198069091B1
:1008100099060C94BA14CF93DF938AE996E00E946C
:10082000F92680E190E00E945621EC0140E050E082
:10083000BA010E941714D0939906C093980624E039
:100840004CE362E086E896E0DF91CF910C945F1074
:100850008F929F92AF92BF92CF92DF92EF92FF92D0
:1008600060E087EC96E00E9412104B015C0140E0D2
:1008700060E087EC96E00E94B20F6B017C0120E003
:1008800030E048EC52E40E94543B0E94723AAB01C3
:10089000BC0187E996E00E94270320E030E048ECA5
:1008A00052E4C501B4010E94543B0E94723AAB016C
:1008B000BC0187E996E00E9430036DE372E088E5B1
:1008C00097E00E94381E22E030E0B501A40188E5DF
:1008D00097E00E94382067E472E088E597E00E9484
:1008E000381E22E030E0B701A60188E597E0FF90CE
:1008F000EF90DF90CF90BF90AF909F908F900C942F
:10090000382040EB5DEA61E070E08091DB06909179
:10091000DC060E94251461EF74E08091DB06909163
:10092000DC060E942E148091DB069091DC060E946A
:10093000321440EC54ED61E070E08091DB06909160
:10094000DC060E94251468E274E08091DB06909139
:10095000DC060E942E148091DB069091DC060E943A
:100960003214EAE0F1E0808180688083EBE0F1E01E
:100970008081808308958091DB069091DC060C9441
:10098000BA14CF93DF9380E190E00E945621EC01EE
:1009900040E050E0BA010E941714D093DC06C093E7
:1009A000DB0680E190E00E945621EC0140E050E03F
:1009B000BA010E941714D093DA06C093D90626E034
:1009C0004BE06EE187EC96E00E94510E80E290E0F1
:1009D0000E9458219093C6068093C506DF91CF915F
:1009E00008958F929F92AF92BF92EF92FF920F93D2
:1009F0001F93CF93DF9300D01F921F92CDB7DEB726
:100A000026E040E855E260E070E082E998E00E946C
:100A1000F01A0E94A6214B015C0185E0EAE0F2E0B9
:100A2000DE01119601900D928A95E1F788E090E041
:100A30000E9458217C0100E010E082E998E00E94C9
:100A40001B1A892BE9F082E998E00E94341A0530DC
:100A5000110554F4E1E0F0E0EC0FFD1FE00FF11F91
:100A6000908189130BC007C08D30A9F0F701E00F0A
:100A7000F11F359780830F5F1F4F02C000E010E029
:100A80000E94A621681979098A099B09693E734069
:100A90008105910590F2F701E00FF11F1082C70167
:100AA0000E94CB3D20E030E048EC52E40E94543BF1
:100AB0000E94723AAB01BC0187E996E00E941E03D6
:100AC000C7010E945A2182E998E00F900F900F9081
:100AD0000F900F90DF91CF911F910F91FF90EF90AA
:100AE000BF90AF909F908F900C94521B089580916F
:100AF000DF069091E006009711F00E945A2182E3F0
:100B000090E00E9458219093E0068093DF061092B7
:100B1000E1061092E2061092E4061092E5061092A9
:100B2000E6061092E7068FEF8093E3060895809122
:100B3000E20628E03CE8462F482790E09595879507
:100B4000669540FD83272150B1F78093E206089512
:100B50001F93CF93DF93EC01162F0E94A621609381
:100B6000E4067093E5068093E6069093E706888195
:100B70009981892B21F4CE010E94770550C0E09124
:100B8000DF06F091E0068091E10691E0980F9093E6
:100B9000E106E80FF11D1083E091DF06F091E00619
:100BA00080818A3A41F72091E10630E0838190E02C
:100BB00005962817390721F0612FCE010E9497056D
:100BC0002091E106243058F1E091DF06F091E00633
:100BD00083818E3210F083E01EC030E090E00596F5
:100BE00028173907E1F46BE772E088E597E00E9487
:100BF000551E8091E106E091DF06F091E006E80FD6
:100C0000F11D31979091E2068081981303C01092F4
:100C1000E30603C082E08093E30681E001C080E048
:100C2000DF91CF911F9108950F931F93CF93DF937F
:100C3000EC018B0182E090E09983888365E872E0A3
:100C40008AE892E00E94A718882349F0C8010E9410
:100C5000ED18882321F00E94A91581E006C01982B1
:100C60001882CE010E94770580E0DF91CF911F911D
:100C70000F910895CF92DF92EF92FF92CF93DF937F
:100C8000EC01F62E2CED35E045E050E060E070E040
:100C900088E992E00E941B16882309F44AC0FF20CD
:100CA00019F00E94A91543C00E94A6216093E40692
:100CB0007093E5068093E6069093E7060E948C15F4
:100CC000892B09F5C090E406D090E506E090E60691
:100CD000F090E70688EBC80E8BE0D81EE11CF11CF3
:100CE0000E94A621C616D706E806F90638F7CE01F7
:100CF0000E94770562EA72E088E597E00E94551E3F
:100D00000E94881812C00E94A6216093E406709386
:100D1000E5068093E6069093E7060E949715682FF4
:100D2000CE010E94A805882369F21982188281E009
:100D300003C01982188280E0DF91CF91FF90EF907D
:100D4000DF90CF90089588EE96E00E94F9268DED11
:100D500096E00C9477050F931F93CF93DF93EC01EC
:100D6000162F042F288139812130310539F02230A6
:100D7000310541F4862F0E94C71504C085EF97E026
:100D80000E948B1A002339F0CE01DF91CF911F9181
:100D90000F910C947705612FCE01DF91CF911F91B8
:100DA0000F910C9497050F931F93CF93DF93EC0152
:100DB000062F142F0E94770540E06AEACE010E94B8
:100DC000AB0640E0602FCE010E94AB0640E0612FF1
:100DD000CE01DF91CF911F910F910C94AB0640E0B3
:100DE0000C94AB06CF92DF92EF92FF920F931F937A
:100DF000CF93DF937C018B01EB01C42ED12CCE016C
:100E0000801B910B8C159D0534F4699140E0C7015E
:100E10000E94AB06F4CFDF91CF911F910F91FF900D
:100E2000EF90DF90CF90089541E06091E2060C943E
:100E3000AB06CF93DF93EC010E94770565E070E08D
:100E4000CE010E9414068823E1F040E064E6CE0162
:100E50000E94D30660E0CE010E94EF06CE010E9400
:100E6000140760E0CE010E943A068091E3068111EA
:100E700008C0E091DF06F091E00681E09181943EA8
:100E800009F080E0DF91CF9108951F93CF93DF9316
:100E9000EC01162F662351F10E94770566E070E0A1
:100EA000CE010E941406882309F140E065E6CE01D8
:100EB0000E94D30661E0CE010E94EF0640E0612F60
:100EC000CE010E94AB06CE010E94140760E0CE0165
:100ED0000E943A068091E306811108C0E091DF0686
:100EE000F091E00681E09181953E09F080E0DF918C
:100EF000CF911F910895AF92BF92CF92DF92EF9260
:100F0000FF920F931F93CF93DF93CDB7DEB76B970D
:100F10000FB6F894DEBF0FBECDBF8C01CE01019697
:100F20000E94F92640E0BE016F5F7F4F89E097E0A5
:100F30000E94DA0ACE0101960E9429277B016115E1
:100F4000710509F485C0C8010E941907882309F4B6
:100F50007FC02AEFE216F10488F0C70169EF70E064
:100F60000E944239C62EE9EF6E9FC00111248E15F2
:100F70009F0531F0CC24C394C60E02C0CC24C39488
:100F80006C2DC8010E944507882309F455C0C8018B
:100F90000E947705D12CF9EFEF16F10410F4BE2C66
:100FA00002C069EFB62E8B2D90E0E81AF90ABC0159
:100FB0006A5F7F4FC8010E941406882389F140E0D0
:100FC00066E6C8010E94D30661E06B0DC8010E946D
:100FD000EF06AA24A394AD0C40E06D2DC8010E9439
:100FE000AB06BB2059F0CE0101960E948B2640E053
:100FF000682FC8010E94AB06BA94F3CFC8010E94C3
:10100000140761E0C8010E943A06811108C06EEA27
:1010100072E088E597E00E94551EDA2C05C0DA2CB4
:10102000E114F10409F0B7CFCD1006C06BEC72E00B
:1010300088E597E00E94551E0E948818C8010E940A
:101040007705BE016F5F7F4F89E097E00E94780AC5
:10105000F801118210826B960FB6F894DEBF0FBEB6
:10106000CDBFDF91CF911F910F91FF90EF90DF9057
:10107000CF90BF90AF900895AF92BF92CF92EF9272
:10108000FF920F931F93CF93DF93CDB7DEB7A09757
:101090000FB6F894DEBF0FBECDBF5C018091E306B2
:1010A000811113C1E091DF06F091E0062181213822
:1010B00008F00BC12C3078F42A3008F003C121303D
:1010C000A1F0223009F0E9C0E4EFF1E0DE01119671
:1010D000FA2EEB2E2CC0D5018D919C912C3009F469
:1010E0006AC0283709F49BC0D8C0F501808191817E
:1010F0000297A9F0E091DF06F091E0066181606857
:1011000040E0C5010E94D30660E0C5010E94EF06E1
:10111000C5010E941407C5010E947B07D3C065E08A
:1011200070E0C5010E9414068111E4CFCEC082E0B8
:10113000E431F80721F084918D933196F8CF89E05E
:1011400097E00E94B40A8C01D5018D919C91029781
:1011500051F1E091DF06F091E0066181606840E0C6
:10116000C5010E94D30666E2C5010E94EF0640E079
:1011700064E0C5010E94AB0644E0B801C5010E94CD
:10118000F20640E060E2C5010E94AB0640E26F2D2E
:101190007E2DC5010E94F206C5010E941407C801F8
:1011A0000E945A218FC066E270E0C5010E941406B9
:1011B0008111CFCF8AC0029741F0E091DF06F09114
:1011C000E00683818630E9F408C065E070E0C5017F
:1011D0000E9414068111F1CF78C0648170E0C1844F
:1011E000E08407812681458185E297E00E94C21351
:1011F000E091DF06F091E00661816068882319F0D4
:101200004AC06181606841E0C5010E94D30660E088
:10121000C5010E94EF06C5010E94140753C0029742
:1012200091F1E091DF06F091E0068381843049F787
:1012300084E090E00E9458218C01E091DF06F0915B
:10124000E0068481D80113968C93139785811296BA
:101250008C931297868111968C931197E091DF06FB
:10126000F091E00687818C93B80189E097E00E94B5
:10127000910AC8010E945A21E091DF06F091E00630
:101280006181606808C065E070E0C5010E941406D5
:101290008111C7CF1AC040E0B7CFF501808191819D
:1012A000029741F0E091DF06F091E006618160680D
:1012B00044E0AACF65E070E0C5010E9414068111E8
:1012C000F1CF03C0C5010E947705A0960FB6F89430
:1012D000DEBF0FBECDBFDF91CF911F910F91FF9069
:1012E000EF90CF90BF90AF9008950F931F93CF933F
:1012F000DF93EC018091E4069091E506A091E6066B
:10130000B091E706892B8A2B8B2BB1F00E94A62186
:1013100068587341810991090091E4061091E5062E
:101320002091E6063091E7060617170728073907C8
:1013300018F4CE010E94770501E010E085EF97E0F8
:101340000E941B1A892BE1F088819981029741F450
:1013500085EF97E0DF91CF911F910F910C94341A94
:101360001983088385EF97E00E94341A682FCE0115
:101370000E94A805882311F3CE010E943C08DECF0D
:10138000DF91CF911F910F910895DC01ED91FC91B8
:101390000280F381E02D1994FC0122816181862F66
:1013A00090E0A0E0B0E077276627722B2381622BC4
:1013B0002081922B08958F929F92AF92BF92CF92ED
:1013C000DF92EF92FF920F931F93CF93DF931F92C1
:1013D000CDB7DEB74B017A01822FDB010D911D9154
:1013E0002D913C910F3F11052105310571F068F0F9
:1013F00001151105B1E02B07310548F00115110564
:101400002105314030F433E005C031E003C032E063
:1014100001C034E0882359F0D701ED91FC9101908F
:10142000F081E02D632FC701398319953981032F8E
:1014300010E0680143E0CC0CDD1C4A95E1F7A12CDB
:10144000B12CB8E0AB1AB10801151105D1F0D701E4
:10145000ED91FC91D4016D917D918D919C919601BE
:101460002A0D3B1D04C096958795779567952A951B
:10147000D2F70190F081E02DC701199501501109B3
:10148000E0CF0F90DF91CF911F910F91FF90EF90E0
:10149000DF90CF90BF90AF909F908F900895CF93A3
:1014A000DF93EB012A813B81FC01338322834C8152
:1014B0005D816E817F814483558366837783488510
:1014C00059856A857B8540875187628773872DE0C0
:1014D000FE013C96DC011C9601900D922A95E1F7E5
:1014E000298D3A8DFC01328F218FDF91CF910895A4
:1014F000CF93DF93EB01CB010E947A27882329F059
:10150000CE010E94682781E001C080E0DF91CF9189
:101510000895F999FECF72BD61BD40BDFA9AF99A5E
:101520000895EF92FF920F931F93CF93DF937C0167
:101530008B01C0E0D0E0F80141918F01BE01C701ED
:101540000E94890A2196C430D105A9F7DF91CF9175
:101550001F910F91FF90EF900895F999FECF72BD02
:1015600061BDF89A80B50895CF92DF92EF92FF9215
:101570000F931F93CF93DF937C0184E090E00E9450
:1015800058216C01C82FDD2D00E010E0B801C70123
:101590000E94AD0A89930F5F1F4F04301105B1F708
:1015A000C601DF91CF911F910F91FF90EF90DF90D7
:1015B000CF900895AF92BF92CF92DF92EF92FF92B9
:1015C0000F931F93CF93DF93CDB7DEB7AB970FB6D3
:1015D000F894DEBF0FBECDBF6C017B01A42E65E386
:1015E00085E99AE00E947C2864E674E0CE01829648
:1015F0000E94B820BE01645E7F4F85E297E00E94A2
:101600007B1289A18A3030F467ED72E0CE018296B8
:101610000E9446214AE069A1CE0101960E94E6207F
:10162000BE016F5F7F4FCE0182960E943F21CE01A7
:1016300001960E944A2088A18A3030F467ED72E05A
:10164000CE0182960E9446214AE068A1CE01019611
:101650000E94E620BE016F5F7F4FCE0182960E94FE
:101660003F21CE0101960E944A208F8D8A3030F4AE
:1016700067ED72E0CE0182960E9446214AE06F8DAE
:10168000CE0101960E94E620BE016F5F7F4FCE0122
:1016900082960E943F21CE0101960E944A2069ED68
:1016A00072E0CE0182960E9446210AA11BA1AA20C7
:1016B00061F1B80185E99AE00E941B2A811123C0DB
:1016C00023E14EED52E065E97AE0CE0101960E94F9
:1016D0009529BE016F5F7F4FC7010E944F0AC70166
:1016E0000E947A27882379F040E050E0BA01C701D0
:1016F0000E940C274AE050E0B801C7010E94C509CA
:10170000C7010E94682723E101C021E0A80165E923
:101710007AE0CE0101960E949529BE016F5F7F4F4E
:10172000C7010E944F0AC7010E947A27B82E88235A
:1017300009F470C0609103077091040785E297E097
:101740000E947813C7010E942927672B682B692BF9
:1017500009F060C0AA2009F45CC08AEA88A789A7BA
:1017600081E48AA781E08BA744E050E0BE01685D78
:101770007F4FC7010E94C509892B09F44AC0C601E1
:101780000E94B40A8C01D701ED91FC910280F38193
:10179000E02D44E050E0BC01C7011995C8010E944A
:1017A0005A21E0910707F0910807108211821282F6
:1017B00013826091050770910607E0910307F0918D
:1017C00004070081118122813381FB010083118391
:1017D0002283338320E0A701C6010E94DB0980EA4F
:1017E000898380EB8A8381EF8B8382EF8C83D7019F
:1017F000ED91FC910190F081E02D64E0C701199515
:1018000044E050E0BE016F5F7F4FC7010E94C509F1
:1018100001C0B12CCE0182960E944A208B2DAB963E
:101820000FB6F894DEBF0FBECDBFDF91CF911F91F1
:101830000F91FF90EF90DF90CF90BF90AF90089501
:10184000EF92FF920F931F93CF93DF93EC018B01E5
:10185000F42E41E06AE077E00E94DA0A8823D9F1A9
:10186000FF2039F1E0900707F09008078091030707
:10187000909104072091050730910607DC014D91F6
:101880005D916D917C91F90180819181A281B381FB
:10189000481B590B6A0B7B0BD7014D935D936D93DE
:1018A0007C93139721E04AE057E0B701CE010E94F4
:1018B000DB0921E04AE057E0B801CE010E94DB09D4
:1018C0006AE077E0CE01DF91CF911F910F91FF90F9
:1018D000EF900C94780A67EE72E088E597E0DF916C
:1018E000CF911F910F91FF90EF900C94551E66E4DD
:1018F00070E00C94AD0A8AE097E00E94F92684E03B
:1019000090E00E945621909304078093030784E09F
:1019100090E00E945621909306078093050784E08B
:1019200090E00E945621909308078093070708953E
:101930002F923F924F925F926F927F928F929F92DF
:10194000AF92BF92CF92DF92EF92FF920F931F93CD
:10195000CF93DF93CDB7DEB7C154D1090FB6F8945A
:10196000DEBF0FBECDBF65E385E99AE00E947C280B
:10197000CE014C960E94F92689E0EEEDF2E0DE0100
:10198000D79601900D928A95E1F7BE01695C7F4F71
:1019900085E99AE00E941B2A811106C063E173E089
:1019A00088E597E00E94551E21E0AE01495C5F4F3B
:1019B00065E97AE0CE0101960E949529BE016F5F2C
:1019C0007F4FCE014C960E944F0ACE014C960E944A
:1019D0007A27811107C06AE273E088E597E00E94E8
:1019E000551E45C1CE014C960E9429276A307105CB
:1019F0008105910559F061E373E088E597E00E9465
:101A0000551ECE014C960E94682731C18BE090E0B4
:101A10000E9458216C017C0100E010E0CE014C9640
:101A20000E948B26F70181937F010F5F1F4F0A30C1
:101A30001105A1F7F6011286CE014C960E94682787
:101A400021E0A60165E97AE0CE0101960E94952980
:101A5000BE016F5F7F4FCE014C960E944F0ACE01B0
:101A60004C960E9429276D3071058105910508F477
:101A7000F1C06DE473E088E597E00E94381EB6017E
:101A800088E597E00E94551E48E050E060E070E075
:101A9000CE014C960E940C2784E090E00E945821D1
:101AA0008C01FC0110821182128213825C01E12CF4
:101AB000F12CCE014C960E948B26F50181935F019B
:101AC000FFEFEF1AFF0A84E0E816F10491F7E090C7
:101AD0000507F0900607C8010E94CC09F701608352
:101AE000718382839383C8010E945A21CE014C9650
:101AF0000E948B265C010E9458217C018C01C80148
:101B00008E199F098A159B0544F4CE014C960E94BC
:101B10008B26F80181938F01F2CF84E090E00E9440
:101B200058218C01049622969FAF8EAF2297CE014A
:101B30004C960E943927892B09F485C0F801108240
:101B4000118212821382CE014C960E948B264C0188
:101B50003801C301801B910B8815990544F4CE010F
:101B60004C960E948B26F30181933F01F2CF809027
:101B7000070790900807C8010E94CC09F401608310
:101B80007183828393831701C1018E199F098A157E
:101B90009B056CF6CE014C960E948B263C01F80109
:101BA000108211821282138222968EAC9FAC2297F1
:101BB000412C512C461457045CF4CE014C960E94E3
:101BC0008B26F40182934F01FFEF4F1A5F0AF2CF89
:101BD000F10181911F01803BD9F060F4803A61F5F9
:101BE000C8010E94CC09AB01BC0187E996E00E94C4
:101BF0001503CACF813FB1F0823FF1F4C8010E94C2
:101C0000CC09AB01BC0187E996E00E943003BCCF50
:101C1000C8010E94CC09AB01BC0187E996E00E9493
:101C20001E03B2CFC8010E94CC09AB01BC0187E9F9
:101C300096E00E942703A8CF67E673E088E597E067
:101C40000E94551EA1CFC7010E945A21C8010E94BF
:101C50005A2106C06BE873E088E597E00E94551EA4
:101C6000CE014C960E946827C6010E945A21CF5B84
:101C7000DF4F0FB6F894DEBF0FBECDBFDF91CF911F
:101C80001F910F91FF90EF90DF90CF90BF90AF909A
:101C90009F908F907F906F905F904F903F902F908C
:101CA0000895DC0115966C93159716964C9316972C
:101CB00070E0FB01E45CFB4FE4911796EC931797FF
:101CC000FB01EE57FB4F649118966C93189740E810
:101CD0005EE360E070E01D964D935D936D937C93A1
:101CE00050970895AF92BF92CF92DF92EF92FF92FA
:101CF0000F931F93CF93DF93EC01AF80662311F016
:101D0000BA2C01C0B12CA885B0E0AA0FBB1FA85304
:101D1000BB4F40E050E0BA01FD0185919491FC0178
:101D200080818A218B1112C08A019B010F5F1F4F96
:101D30002F4F3F4FCD84DE84EF84F8884C155D052E
:101D40006E057F0538F4B901A801E6CF342F252FA1
:101D5000CB0104C030E020E080E090E0632F722FE0
:101D6000DF91CF911F910F91FF90EF90DF90CF9077
:101D7000BF90AF900895CF92DF92EF92FF920F93B2
:101D80001F93CF93DF93CDB7DEB7C054D1400FB6CA
:101D9000F894DEBF0FBECDBF8C01F62E0E94A621A7
:101DA000F11016C0F801C184D284E384F4849B014D
:101DB000AC012C193D094E095F0969017A0130ED2A
:101DC000C31637E0D306E104F10410F48189BAC0E8
:101DD000F801618772878387948714821382128245
:101DE0001182108261E085810E94F6226AEF70E024
:101DF00080E090E00E94D52161E0F80185810E9499
:101E0000BD2260E0F80185810E94F62264E170E065
:101E100080E090E00E94D521F89461E0F80185818E
:101E20000E94F62288E290E00E94FD2162E0F80123
:101E300085810E94BD228AE090E00E94FD2160E041
:101E4000C8010E94720E672B682B692B41F061E07C
:101E5000C8010E94720E672B682B692B21F4F801D0
:101E6000118A78946EC06E01FFEBCF1AFEEFDF0A85
:101E70009E012F5F3F4F790160E0C8010E94720E02
:101E8000F701608371838283938361E0C8010E94BC
:101E9000720EF7016483758386839783F8E0EF0EF3
:101EA000F11CEC14FD0441F778949E012F5F3F4F25
:101EB000790120E030E0F701408151816281738136
:101EC00084819581A681B781411551056105710510
:101ED000B1F10097A105B10591F1F901F595E795EB
:101EE000F595E795F595E795E00FF11FD080DD0CAE
:101EF000481759076A077B0710F0D08203C08D2D61
:101F0000816080832F5F3F4FF8E0EF0EF11C283295
:101F1000310589F6F801248130E04081818190E02B
:101F2000840F911D4281840F911D4381840F911D67
:101F300099272817390719F481E0818B03C0F8012C
:101F4000118A80E0C05CDE4F0FB6F894DEBF0FBE92
:101F5000CDBFDF91CF911F910F91FF90EF90DF9058
:101F6000CF900895CF92DF92EF92FF920F931F933D
:101F7000CF93DF93EC01162F642F0E94BB0E8823B2
:101F800009F443C08E818B3031F008F43EC0855196
:101F9000823040F03AC06A8170E080E090E00E94B8
:101FA0009E3A24C00A81602F6F7770E080E090E055
:101FB0000E94A03A20E030E040E853E40E94543B05
:101FC0006B017C016B8170E080E090E00E94A03AA0
:101FD0009B01AC01C701B6010E949D392DEC3CEC80
:101FE0004CEC5DE30E94543B07FD9058112389F0AF
:101FF00026E636E646EE5FE30E94543B20E030E002
:1020000040E052E40E949D3904C060E070E080EC42
:102010009FE7DF91CF911F910F91FF90EF90DF909D
:10202000CF900895CF92DF92EF92FF92CF93DF93FC
:10203000EC0160E00E94BB0E882379F18E818B3029
:1020400029F158F18551823040F5688170E080E0D7
:1020500090E00E949E3A20E030E040E853E40E9485
:10206000543B6B017C01698170E080E090E00E944C
:10207000A03A9B01AC01C701B6010E949D392DEC2D
:102080003CEC4CEC5DE30E94543B0BC0688170E07B
:1020900080E090E00E949E3A04C060E070E080EC36
:1020A0009FE7DF91CF91FF90EF90DF90CF90089561
:1020B000DC01ED91FC910190F081E02D1994FC017F
:1020C0001382128285EB93E09183808380E881877D
:1020D00080E4828767834683208714821386148670
:1020E000108A178615820895CF93C62FFC0166814A
:1020F00085ED99E00E94062460E070E085ED99E0AE
:102100000E9458106C2F85ED99E00E94AD2385ED5B
:1021100099E0CF910C942524CF93DF93EC018E8529
:10212000681710F58D854817F8F4688B4F87862F50
:10213000880F860F880F8B87842F880F880F880F52
:102140008C87642F606BCE010E9474106B856F705A
:10215000CE010E9474106B8562956F706061CE0134
:10216000DF91CF910C947410DF91CF9108956EEAB6
:102170000C9474106FEA0C947410662311F067EAE3
:1021800001C066EA0C947410CF93C62FFC016681DF
:1021900085ED99E00E94062460E470E085ED99E009
:1021A0000E9458106C2F85ED99E00E94AD2385EDBB
:1021B00099E0CF910C942524FF920F931F93CF9316
:1021C000DF93EC01F62E61E20E94741060E0CE0114
:1021D0000E9474106FE7CE010E94741062E2CE017B
:1021E0000E94741060E0CE010E94741067E0CE017E
:1021F0000E94741060EBCE010E94741060E0CE016A
:102200000E94741060E1CE010E94741000E014E09E
:1022100060E0CE010E94C41001501109C9F76F2D72
:10222000CE010E94BD1040E060E0CE01DF91CF9171
:102230001F910F91FF900C948C10CF93DF93EC01C2
:102240006E874D8785ED99E00E94EC238885882371
:10225000D9F061E00E94BD2261E088850E94F622EB
:1022600061E070E080E090E00E94D52160E0888528
:102270000E94F6226AE070E080E090E00E94D521A2
:1022800061E088850E94F622CE010E94B71060E2CC
:10229000CE010E94741060E0CE010E94741068EAC2
:1022A000CE010E9474106FE3CE010E94741063EDA2
:1022B000CE010E94741060E0CE010E94741060E4B0
:1022C000CE010E94741061EACE010E94741068EC85
:1022D000CE010E9474106AEDCE010E94741062E17A
:1022E000CE010E94741061E8CE010E9474108F81AB
:1022F000813011F46FE901C06FECCE010E947410BF
:1023000069EDCE010E9474108F81813011F462E278
:1023100001C061EFCE010E9474106BEDCE010E94EE
:10232000741060E4CE010E94741064EACE010E9431
:10233000741066EACE010E94741065EDCE010E9411
:10234000741060E8CE010E9474106DE8CE010E9406
:1023500074108F81813011F460E101C064E1CE011D
:102360000E947410CE010E94BA1060E0CE01DF918D
:10237000CF910C94DC10DF92EF92FF920F931F939A
:10238000CF93DF93EC01162FD42E5B85898590E0E7
:102390000497252F30E0281739070CF04CC04C85E6
:1023A0008A8590E00797242F30E0281739070CF032
:1023B00042C0603219F45A5F5B873DC0642F669556
:1023C00066956695606BCE010E9474106B856F7088
:1023D000CE010E9474106B8562956F706061CE01B2
:1023E0000E947410612F70E06152710985E0869F30
:1023F0007001879FF00C112400E010E0C7018C5E93
:102400009D4F7C01F701E00FF11F6491D1106095A1
:10241000CE010E94C4100F5F1F4F0530110591F7C8
:10242000DD2011F06FEF01C060E0CE010E94C4100A
:102430008B858A5F8B87DF91CF911F910F91FF90E2
:10244000EF90DF900895CF93DF93EC016A3081F035
:102450006D30A1F040E00E94BB118D81882381F096
:10246000898590E005972B8530E02817390744F0DF
:102470008C85885F8C878F858F5F8F87188A1B86F6
:1024800081E090E0DF91CF910895603D87E078078B
:1024900010F0605D774030E0EAEEF3E081E08E1B03
:1024A000982F9E0F941728F49491290F311D31967F
:1024B000F7CF433038F0CB0183709927892B11F483
:1024C0002F5F3F4F4DE651E0649FC001659F900D27
:1024D000749F900D112401976D5F7F4F76956795DE
:1024E00076956795860F971F820F931F089585ED48
:1024F00099E00C94EC23CF93DF93EB0168E670E056
:1025000085ED99E00E94102460E070E085ED99E08F
:102510000E94581047E050E068E670E085ED99E0D1
:102520000E94032485ED99E00E945523892B09F42C
:1025300053C085ED99E00E945D23982F92959F707E
:102540008F702AE0929F800D1124888385ED99E099
:102550000E945D23982F92959F708F702AE0929F22
:10256000800D1124898385ED99E00E945D23982FC9
:1025700092959F708F702AE0929F800D11248A831C
:1025800085ED99E00E945D2385ED99E00E945D2331
:10259000982F92959F708F702AE0929F800D112442
:1025A0008B8385ED99E00E945D23982F92959F7013
:1025B0008F702AE0929F800D11248C8385ED99E025
:1025C0000E945D23982F92959F708F702AE0929FB2
:1025D000800D11248D8306C0188219821A821B82F5
:1025E0001C821D8285ED99E0DF91CF910C9425240A
:1025F000CF93DF93EB0168E670E085ED99E00E94F0
:10260000102460E070E085ED99E00E94581047E0EA
:1026100050E068E670E085ED99E00E94032418829E
:1026200085ED99E00E945523892B09F45BC085ED67
:1026300099E00E945D23982F92959F708F702AE0F9
:10264000929F800D1124888385ED99E00E945D237F
:10265000982F92959F708F702AE0929F800D112481
:10266000898385ED99E00E945D23982F92959F7054
:102670008F702AE0929F800D11248A8385ED99E066
:102680000E945D23982F92959F708F702AE0929FF1
:10269000800D11248B8385ED99E00E945D23982F96
:1026A00092959F708F702AE0929F800D11248C83E9
:1026B00085ED99E00E945D23982F92959F708F7011
:1026C0002AE0929F800D11248D8385ED99E00E9470
:1026D0005D23982F92959F708F702AE0929F800DB6
:1026E00011248E8385ED99E0DF91CF910C94252400
:1026F000BF92CF92DF92EF92FF920F931F93CF93EF
:10270000DF936C018B0187E090E00E945821EC017F
:10271000BC01C6010E94F812F880E980BA806E817F
:1027200070E02C814D81C6010E9445129C01A8E1F8
:10273000B0E00E947E399B01AC012B0D311D411D83
:10274000511DACE3B0E00E948D399B01AC012E0D10
:10275000311D411D511D0E948D396F0D711D811D4F
:10276000911DF8016083718382839383CE01DF9191
:10277000CF911F910F91FF90EF90DF90CF90BF907E
:102780000C945A21CF92EF920F931F93CF93DF9324
:10279000C62FD42F122F68E670E085ED99E00E94D5
:1027A000102460E070E085ED99E00E945810892BBC
:1027B000B1F16C2D85ED99E00E94AD236E2D85ED74
:1027C00099E00E94AD23602F85ED99E00E94AD2332
:1027D00061E070E085ED99E00E945810612F85ED71
:1027E00099E00E94AD236D2F85ED99E00E94AD2305
:1027F000E091D509F091D6090190F081E02D6C2F80
:1028000085ED99E0199560E070E085ED99E00E9412
:10281000581085ED99E00E94252481E001C080E0F8
:10282000DF91CF911F910F91EF90CF900895FC0110
:1028300040835183628373831482158217821682C8
:1028400010861186128613860895FC0140835183F9
:10285000628373830895FC0165830895FC01778387
:1028600066830895CF93DF93EC010E94A6216887C9
:1028700079878A879B8781E08C83DF91CF91089548
:102880000F931F93CF93DF93EC010E94A6210C8539
:102890001D852E853F85601B710B820B930B68870E
:1028A00079878A879B8781E08C83DF91CF911F9105
:1028B0000F9108950F931F93CF93DF93EC010E9424
:1028C000A621088519852A853B85601B710B820B23
:1028D000930B6C877D878E879F871C82DF91CF91BA
:1028E0001F910F910895CF92DF92EF92FF921F9365
:1028F000CF93DF93EC011C81111102C010E031C0B5
:10290000C884D984EA84FB840E94A621660F771FBD
:10291000881F991F6C157D058E059F0520F418866C
:1029200019861A861B860E94A621C884D984EA8447
:10293000FB846C197D098E099F09C880D980EA80C3
:10294000FB806C157D058E059F05C0F20E94A621B7
:10295000688779878A879B878D81882311F01C82FD
:10296000182F812FDF91CF911F91FF90EF90DF9073
:10297000CF900895CF93DF93EC010E9473148823C6
:1029800029F0EE81FF81DF91CF911994DF91CF91F2
:10299000089569EB73E088E597E00E94551E8091E9
:1029A0002607909127070C945A146FED73E088E581
:1029B00097E00E94551E80912607909127070C945E
:1029C000401486E10E942C2321E0019709F020E0C9
:1029D000822F089560E086E10E94BD2261E087E1D8
:1029E0000E94BD220E94E114811104C080912B0736
:1029F0008823F9F061E080912807909129070E94CF
:102A00002B1448E853E160E070E080912807909132
:102A100029070E94251461E578E1809128079091AB
:102A200029070E942E1480912807909129070C9461
:102A300032141092340710922C0710922D07109226
:102A40002E0710922F071092300710923107109224
:102A500032071092330764E074E088E597E00E9443
:102A6000551E61E087E10E94F62281E080932B07EA
:102A7000C1CF0E94E114882349F16BE174E088E53D
:102A800097E00E94551E61E087E10E94F62261E016
:102A900080912807909129070E942B1448E853E160
:102AA00060E070E080912807909129070E9425142A
:102AB00061E578E180912807909129070E942E1402
:102AC00080912807909129070C94321463E374E0F5
:102AD00088E597E00C94551E20912A0721110FC01C
:102AE000909336078093350781E080932A0768E446
:102AF00074E088E597E00E94551E0C94EA1408954E
:102B000080912607909127070E94BA148091280788
:102B1000909129070C94BA1480913507909136074B
:102B2000DC01ED91FC910480F581E02D19940E9467
:102B30008C15892B61F08091350790913607DC0167
:102B4000ED91FC910680F781E02D1995089580E0C4
:102B500008950E948C15892B61F080913507909122
:102B60003607DC01ED91FC910680F781E02D199587
:102B7000F0CF0895A0913507B0913607ED91FC9103
:102B800011970190F081E02D682FCD0119940C94DC
:102B9000BA154AE050E0BC018091350790913607A4
:102BA0000C94351F0F931F93CF93DF93EC018C018F
:102BB000FE0101900020E9F73197EC1BFD0BC801E5
:102BC0008C1B9D0B8E179F0730F4F80181918F01AC
:102BD0000E94BA15EDCFDF91CF911F910F9108950B
:102BE000EF92FF920F931F93CF93DF93EC017B0142
:102BF0008A0181E080932F0787E594E00E94D21537
:102C0000CE010E94D21588E096E00E94D215C7013D
:102C10000E94D21588E096E00E94D215C8010E9459
:102C2000D21581E694E0DF91CF911F910F91FF9033
:102C3000EF900C94D2153F924F925F926F927F92D9
:102C40008F929F92AF92BF92CF92DF92EF92FF92BC
:102C50000F931F93CF93DF935C014B01EA01DC01DB
:102C60000D900020E9F78D0101501109081B190B87
:102C70000E94A6212B013C019E01A8EEB3E00E9418
:102C80007E396B017C01C0E0D0E00E948C15892B5D
:102C9000D9F08091350790913607DC01ED91FC91D8
:102CA0000680F781E02D1995382E0E94A621F501A6
:102CB000EC0FFD1F8081831102C0219602C0C0E08D
:102CC000D0E0C017D10771F00E94A62164197509E0
:102CD00086099709C616D706E806F90640F00E944D
:102CE000A621D3CF892829F40E94A91502C080E02B
:102CF00001C081E0DF91CF911F910F91FF90EF9084
:102D0000DF90CF90BF90AF909F908F907F906F900B
:102D10005F904F903F900895CF92DF92EF92FF9295
:102D20000F931F93CF93DF93EB017A0169010E9408
:102D3000D2159801A601B701CE01DF91CF911F9165
:102D40000F91FF90EF90DF90CF900C941B160F9394
:102D50001F9361E080912607909127070E942B1412
:102D600040EA5FE060E070E08091260790912707DD
:102D70000E94251467EA76E1809126079091270743
:102D80000E942E140E94E114811106C01092320795
:102D90001F910F910C94EA14809134078A3050F0FF
:102DA00065E674E088E597E00E94551E1F910F913B
:102DB0000C9439150E94A91580912C0781113CC0F3
:102DC0000CED15E02AE030E040E050E06DE972E003
:102DD0008DE894E00E948C16811125C010922C077A
:102DE00010922D0710922E0710922F071092300785
:102DF0001092310710923207109233070E94391552
:102E000040EA5FE060E070E080912607909127073C
:102E10000E94251480912607909127070E94321462
:102E200069E974E038C081E080932C076FEA74E0B0
:102E300088E597E00E94551E0CED15E02AE030E091
:102E400040E050E063EC74E080ED94E00E948C166A
:102E5000811127C010922E0710923007109231076F
:102E60001092320710923307809134078F5F80935E
:102E7000340740E157E260E070E0809126079091CE
:102E800027070E94251480912607909127070E940A
:102E900032146BED74E088E597E01F910F910C946C
:102EA000551E6CEE74E088E597E00E94551E8091F7
:102EB0002D0781112EC00CED15E02AE030E040E036
:102EC00050E06DE972E08BEF94E00E948C16811166
:102ED00017C010922D071092320748EE53E060E0C1
:102EE00070E080912607909127070E942514809119
:102EF0002607909127070E94321468E075E0CBCF37
:102F000081E080932D076BE175E088E597E00E94F2
:102F1000551E80912E0781111FC08CE295E00E9402
:102F2000D21540ED57E060E070E080912607909167
:102F300027070E94251480912607909127070E9459
:102F4000321481E080932E07809134078F5F809345
:102F500034071F910F91089580912F0781111AC096
:102F600044E654E0BA0189E395E00E94F01548EE8A
:102F700053E060E070E080912607909127070E945F
:102F8000251480912607909127070E94321465E44A
:102F900075E081CF809130070CED15E02AE030E03C
:102FA00040E050E0811132C068EB75E084E595E0C7
:102FB0000E948C1681111CC01092300710923207AB
:102FC000809134078F5F8093340740ED57E060E0D5
:102FD00070E080912607909127070E942514809128
:102FE0002607909127070E9432146FE575E053CFB2
:102FF00081E08093300762E775E088E597E00E9402
:10300000551E40EA5FE060E070E03DC061E374E0BF
:1030100083E895E00E948C16811120C010922E0743
:1030200010923007109232071092330780913407C4
:103030008F5F8093340744E650E060E070E0809159
:103040002607909127070E942514809126079091CA
:1030500027070E9432146EE875E01DCF60EA75E024
:1030600088E597E00E94551E81E08093320760EB6F
:1030700075E088E597E00E94551E1092340740ECF9
:1030800054ED61E070E080912607909127070E943F
:10309000251480912607909127071F910F910C947A
:1030A000321410922B0760E087E10E94F6220E9402
:1030B000E114811125C06BEB75E088E597E00E9473
:1030C000551E61E080912807909129070E942B14DA
:1030D00048EE53E060E070E0809128079091290766
:1030E0000E9425146AEE74E18091280790912907C7
:1030F0000E942E1480912807909129070C94321475
:103100006EEC75E088E597E00E94551E0C94A716BA
:103110000F931F930E94D514109233070CED15E006
:103120002AE030E040E050E06FED75E08AEE95E097
:103130000E948C16811107C0809134078F5F8093A5
:10314000340780E001C081E01F910F910895FF9244
:103150000F931F93CF93DF93EC018B01F090330714
:10316000F11034C0F0903207FF2081F10E94A915C0
:1031700088EF95E00E94D215CE010E94D2158CE016
:1031800096E00E94D215C8010E94D2150CED15E000
:103190002AE030E040E050E06FE076E082E694E044
:1031A0000E948C16882341F00E94C91410923407A3
:1031B00081E0809333070AC010923307809134076F
:1031C0008F5F809334070E948818F12C8F2DDF9138
:1031D000CF911F910F91FF9008950F931F93CF935D
:1031E000DF93EC0187E196E00E94D215CE010E94A8
:1031F000C9150CED15E02AE030E040E050E063E254
:1032000076E082E694E00E948C16811105C09091D0
:1032100034079F5F90933407DF91CF911F910F91F7
:103220000895CF93DF9380E190E00E945621EC0156
:1032300048EB5BE060E070E00E941714D093290730
:10324000C093280780E190E00E945621EC0140ECF9
:1032500054ED61E070E00E941714D0932707C093EB
:103260002607DF91CF9108950F931F93CF93DF939C
:1032700000D000D0CDB7DEB749835A836B837C83FF
:103280008D839E8365E276E088E597E00E94381E94
:103290004AE050E06C8188E597E00E94171F61E3E7
:1032A00074E088E597E00E94381E4AE050E06D81A6
:1032B00088E597E00E94171F61E374E088E597E0D6
:1032C0000E94381E4AE050E06E8188E597E00E9437
:1032D0001E1F6FE276E088E597E00E94381E4AE004
:1032E00050E06B8188E597E00E94171F68E376E065
:1032F00088E597E00E94381E4AE050E06A8188E540
:1033000097E00E94171F68E376E088E597E00E9447
:10331000381E4AE050E0698188E597E00E941E1F50
:1033200089E097E00E94B40A8C016AE376E088E5C0
:1033300097E00E94381EF8014081518162817381BB
:103340002AE030E088E597E00E943B1FC8012696FE
:103350000FB6F894DEBF0FBECDBFDF91CF911F91A6
:103360000F910C945A21CF93DF9300D000D0CDB7AA
:10337000DEB70E94072226E040E855E260E070E0F8
:1033800088E597E00E94F01A26E040E855E260E008
:1033900070E085EF97E00E94F01A26E040E052ECE2
:1033A00061E070E08FE299E00E94F01A8DED96E006
:1033B0000E9476050E9481048FE299E00E946C15BC
:1033C00087E996E00E944403BE016F5F7F4F85E26C
:1033D00097E00E947B122FEF81EE94E02150804015
:1033E0009040E1F700C0000049815A816B817C81E7
:1033F0008D819E810E94341984E190E00E945821C1
:1034000087E996E00E9405048DED96E00E9475091B
:103410000E9480150E94BB04F3CF8DE397E00E94C9
:10342000F92664E674E087E397E00C94B82087E31C
:1034300097E00C944A20FC01818D228D90E0805C05
:103440009F4F821B91098F7399270895FC01918DDD
:10345000828D981731F0828DE80FF11D858D90E0F7
:1034600008958FEF9FEF0895FC01918D828D98173D
:1034700061F0828DDF01A80FB11D5D968C91928D58
:103480009F5F9F73928F90E008958FEF9FEF089555
:10349000FC01848DDF01A80FB11DA35ABF4F2C91F1
:1034A000848D90E001968F739927848FA689B789C0
:1034B0002C93A089B1898C9180648C93938D848D99
:1034C000981306C00288F389E02D80818F7D808368
:1034D0000895CF93DF93EC01888D8823C9F0EA89A2
:1034E000FB89808185FD05C0A889B9898C9186FDFD
:1034F0000FC00FB607FCF5CF808185FFF2CFA889FA
:10350000B9898C9185FFEDCFCE010E94481AE7CF93
:10351000DF91CF910895CF92DF92FF920F931F9387
:10352000CF93DF931F92CDB7DEB76C01DC015B96C2
:103530009C915B975C968C915C97981307C0509612
:10354000ED91FC915197808185FD32C0F601038D8C
:1035500010E00F5F1F4F0F731127F02EF601848DBF
:10356000F81211C00FB607FCF9CFD6015096ED91B5
:10357000FC915197808185FFF1CFC60169830E943C
:10358000481A6981EBCF838DE80FF11DE35AFF4F95
:103590006083D6015B960C935B975296ED91FC91FC
:1035A000539780818062808381E058968C930DC010
:1035B000D6015696ED91FC91579760835096ED9108
:1035C000FC91519780818064808381E090E00F902E
:1035D000DF91CF911F910F91FF90DF90CF900895D1
:1035E000BF92CF92DF92EF92FF92CF93DF93EC01E5
:1035F0006A017B01B22EE889F98982E08083411556
:1036000081EE580761057105A1F060E079E08DE376
:1036100090E0A70196010E945639215031094109D5
:1036200051095695479537952795211580E138071B
:1036300098F0E889F989108260E874E88EE190E0FA
:10364000A70196010E9456392150310941095109BB
:103650005695479537952795EC85FD853083EE8502
:10366000FF852083188EEC89FD89B082EA89FB8969
:10367000808180618083EA89FB8980818860808382
:10368000EA89FB89808180688083EA89FB8980815F
:103690008F7D8083DF91CF91FF90EF90DF90CF906F
:1036A000BF900895FC01938D848D9813FCCFA2895F
:1036B000B3898C918F7E8C93A289B3898C91877FFB
:1036C0008C93A289B3898C918F778C93A289B389CB
:1036D0008C918F7D8C93828D818F08951F920F9294
:1036E0000FB60F9211240BB60F922F938F939F93C7
:1036F000EF93FF93E0916807F09169078081E09173
:103700006E07F0916F0782FD12C090818091710762
:103710008F5F8F7320917207821751F0E0917107CC
:10372000F0E0E85AF84F958F8093710701C08081CF
:10373000FF91EF919F918F912F910F900BBE0F9062
:103740000FBE0F901F9018951F920F920FB60F92F9
:1037500011240BB60F922F933F934F935F936F9368
:103760007F938F939F93AF93BF93EF93FF9388E5DE
:1037700097E00E94481AFF91EF91BF91AF919F91FE
:103780008F917F916F915F914F913F912F910F900A
:103790000BBE0F900FBE0F901F90189510925B07F5
:1037A00010925A0788EE93E0A0E0B0E080935C07A7
:1037B00090935D07A0935E07B0935F0783E496E064
:1037C000909359078093580785EC90E09093650794
:1037D0008093640784EC90E090936707809366077A
:1037E00080EC90E0909369078093680781EC90E00B
:1037F00090936B0780936A0782EC90E090936D073B
:1038000080936C0786EC90E090936F0780936E072F
:10381000109271071092720710927307109274073A
:1038200008951F920F920FB60F9211240BB60F92AC
:103830002F938F939F93EF93FF93E0910508F0915F
:1038400006088081E0910B08F0910C0882FD12C0FF
:10385000908180910E088F5F8F7320910F088217DF
:1038600051F0E0910E08F0E0EB50F84F958F809307
:103870000E0801C08081FF91EF919F918F912F9150
:103880000F900BBE0F900FBE0F901F9018951F92B8
:103890000F920FB60F9211240BB60F922F933F93F6
:1038A0004F935F936F937F938F939F93AF93BF9348
:1038B000EF93FF9385EF97E00E94481AFF91EF91F5
:1038C000BF91AF919F918F917F916F915F914F9138
:1038D0003F912F910F900BBE0F900FBE0F901F9036
:1038E00018951092F8071092F70788EE93E0A0E081
:1038F000B0E08093F9079093FA07A093FB07B09389
:10390000FC0783E496E09093F6078093F5078DEC2F
:1039100090E090930208809301088CEC90E09093E3
:1039200004088093030888EC90E090930608809345
:10393000050889EC90E090930808809307088AECCA
:1039400090E090930A08809309088EEC90E09093A1
:103950000C0880930B0810920E0810920F0810921A
:1039600010081092110808951F920F920FB60F922F
:1039700011240BB60F922F938F939F93EF93FF9386
:10398000E091A208F091A3088081E091A808F0914D
:10399000A90882FD12C090818091AB088F5F8F7360
:1039A0002091AC08821751F0E091AB08F0E0EE56A0
:1039B000F74F958F8093AB0801C08081FF91EF9105
:1039C0009F918F912F910F900BBE0F900FBE0F9074
:1039D0001F9018951F920F920FB60F9211240BB6DD
:1039E0000F922F933F934F935F936F937F938F9398
:1039F0009F93AF93BF93EF93FF9382E998E00E9468
:103A0000481AFF91EF91BF91AF919F918F917F9154
:103A10006F915F914F913F912F910F900BBE0F903F
:103A20000FBE0F901F901895109295081092940851
:103A300088EE93E0A0E0B0E080939608909397081A
:103A4000A0939808B093990883E496E09093930824
:103A50008093920885ED90E090939F0880939E0854
:103A600084ED90E09093A1088093A00880ED90E011
:103A70009093A3088093A20881ED90E09093A5080D
:103A80008093A40882ED90E09093A7088093A60805
:103A900086ED90E09093A9088093A8081092AB0857
:103AA0001092AC081092AD081092AE0808951F92C3
:103AB0000F920FB60F9211240BB60F922F938F9384
:103AC0009F93EF93FF93E0913F09F091400980812C
:103AD000E0914509F091460982FD12C090818091E4
:103AE00048098F5F8F7320914909821751F0E09147
:103AF0004809F0E0E15DF64F958F8093480901C0D9
:103B00008081FF91EF919F918F912F910F900BBE2C
:103B10000F900FBE0F901F9018951F920F920FB627
:103B20000F9211240BB60F922F933F934F935F93F5
:103B30006F937F938F939F93AF93BF93EF93FF9375
:103B40008FE299E00E94481AFF91EF91BF91AF91E7
:103B50009F918F917F916F915F914F913F912F91A5
:103B60000F900BBE0F900FBE0F901F9018951092E4
:103B700032091092310988EE93E0A0E0B0E0809322
:103B8000330990933409A0933509B093360983E43F
:103B900096E09093300980932F0985E391E090930C
:103BA0003C0980933B0984E391E090933E09809324
:103BB0003D0980E391E09093400980933F0981E3C0
:103BC00091E0909342098093410982E391E09093C0
:103BD00044098093430986E391E0909346098093DA
:103BE0004509109248091092490910924A09109209
:103BF0004B090895CF92DF92EF92FF920F931F939C
:103C0000CF93DF936C017A01EB01E60EF71E00E023
:103C100010E0CE15DF0561F06991D601ED91FC91C0
:103C20000190F081E02DC6011995080F191FF1CF01
:103C3000C801DF91CF911F910F91FF90EF90DF901E
:103C4000CF9008956115710581F0DB010D90002082
:103C5000E9F7AD0141505109461B570BDC01ED91CD
:103C6000FC910280F381E02D199480E090E00895AA
:103C70000C94221EDC01ED91FC910190F081E02D6D
:103C800019940F931F93CF93DF93EC016DE00E9483
:103C90003A1E8C016AE0CE010E943A1E800F911FED
:103CA000DF91CF911F910F9108950F931F93CF93A1
:103CB000DF93EC010E94221E8C01CE010E94411E66
:103CC000800F911FDF91CF911F910F9108958F92D7
:103CD0009F92AF92BF92CF92DF92EF92FF920F939B
:103CE0001F93CF93DF93CDB7DEB7A1970FB6F894AC
:103CF000DEBF0FBECDBF7C01C42EE52FCB01D22E7F
:103D000019A221E02D1510F02AE0D22E8E010F5DB0
:103D10001F4F8D2C912CA12CB12C6C2D7E2FA50129
:103D200094010E9456398C2DD29E80191124015085
:103D300011098A3014F4805D01C0895CF801808328
:103D4000211531054105510521F0C22EE32FCA018D
:103D5000E4CFB801C7010E94221EA1960FB6F894C5
:103D6000DEBF0FBECDBFDF91CF911F910F91FF90AE
:103D7000EF90DF90CF90BF90AF909F908F9008957D
:103D8000CF92DF92EF92FF920F931F93CF93DF9327
:103D9000EC016A017B012115310579F4E881F98193
:103DA0000190F081E02D642FDF91CF911F910F9151
:103DB000FF90EF90DF90CF9019942A303105E9F40D
:103DC00077FF1AC06DE20E943A1E8C0144275527E6
:103DD000BA014C195D096E097F092AE0CE010E94E3
:103DE000671E800F911FDF91CF911F910F91FF9060
:103DF000EF90DF90CF9008952AE0B701A601CE01A1
:103E0000DF91CF911F910F91FF90EF90DF90CF90B6
:103E10000C94671E2115310541F4DC01ED91FC91F4
:103E20000190F081E02D642F19940C94671E9A0183
:103E3000462F50E060E070E00C940A1F0F931F9330
:103E4000CF93DF93EC019A01462F50E060E070E0E1
:103E50000E940A1F8C01CE010E94411E800F911FFB
:103E6000DF91CF911F910F9108959A01AB0160E00E
:103E700070E00C940A1F0F931F93CF93DF93EC0114
:103E80000E940A1F8C01CE010E94411E800F911FCB
:103E9000DF91CF911F910F9108954F925F926F9292
:103EA0007F928F929F92AF92BF92CF92DF92EF92CA
:103EB000FF920F931F93CF93DF93EC016A017B0175
:103EC000B22E9A01AB01C701B6010E94B73B88230D
:103ED00019F06FE476E027C026013701E89477F8FF
:103EE0002FEF3FEF4FE75FE7C301B2010E94B73BFF
:103EF00081110DC02FEF3FEF4FE75FE7C301B20124
:103F00000E94013A18161CF463E576E00CC02FEF0E
:103F10003FEF4FE75FE4C701B6010E94503B181620
:103F2000ACF467E576E0CE01DF91CF911F910F9160
:103F3000FF90EF90DF90CF90BF90AF909F908F90C9
:103F40007F906F905F904F900C94221E2FEF3FEF69
:103F50004FE75FECC701B6010E94013A87FDE1CF50
:103F600020E030E0A901C701B6010E94013A87FFB5
:103F70000AC06DE2CE010E943A1E8C01F7FAF0945D
:103F8000F7F8F09402C000E010E0A12C60E070E0CF
:103F900080E09FE3AB1441F020E030E040E251E4E8
:103FA0000E94053AA394F6CF9B01AC01C701B6016C
:103FB0000E949D396B017C010E94723A2B013C01E9
:103FC0000E949E3A9B01AC01C701B6010E949C3938
:103FD0006B017C012AE0B301A201CE010E94671EA1
:103FE000080F191FBB2039F061E374E0CE010E9475
:103FF000221E080F191F7B2C772041F120E030E0B2
:1040000040E251E4C701B6010E94543B6B017C01C0
:104010000E946D3A4B01AA2497FCA094BA2C2AE086
:1040200030E0B501A401CE010E94C01E080F191F87
:10403000C501B4010E94A03A9B01AC01C701B601C1
:104040000E949C396B017C017A94D6CFC801DF9124
:10405000CF911F910F91FF90EF90DF90CF90BF9085
:10406000AF909F908F907F906F905F904F9008954A
:104070000F931F93CF93DF93EC010E944D1F8C0190
:10408000CE010E94411E800F911FDF91CF911F91A1
:104090000F910895FC01808191810C94533CCF9342
:1040A000DF93EC0188819981009711F00E94533CC5
:1040B000198218821D821C821B821A82DF91CF9185
:1040C00008950F931F93CF93DF93EC018B016F5FE4
:1040D0007F4F888199810E94E23C009731F099835B
:1040E00088831B830A8381E001C080E0DF91CF9148
:1040F0001F910F910895CF93DF93EC0188819981EF
:10410000892B29F08A819B818617970760F4CE015D
:104110000E946120882341F08C819D81892B19F4B4
:10412000E881F981108281E0DF91CF910895EF92CB
:10413000FF920F931F93CF93DF93EC017B018A01D2
:10414000BA010E947B20811104C0CE010E944F2041
:1041500007C01D830C83B701888199810E94F83DB7
:10416000CE01DF91CF911F910F91FF90EF900895B5
:10417000FC01118210821382128215821482611551
:10418000710559F0FB0101900020E9F7AF014150A2
:104190005109461B570B0C9497200895CF93DF933A
:1041A000EC016115710561F0FB0101900020E9F758
:1041B000AF0141505109461B570B0E94972002C086
:1041C0000E944F20CE01DF91CF9108950F931F934E
:1041D000CF93DF93CDB7DEB729970FB6F894DEBF44
:1041E0000FBECDBF8C01862FF80111821082138281
:1041F00012821582148250E0BE016F5F7F4F90E003
:104200000E940E3EBE016F5F7F4FC8010E94CE200C
:1042100029960FB6F894DEBF0FBECDBFDF91CF91C8
:104220001F910F910895EF92FF920F931F93CF93D9
:10423000DF93EC017B010C811D816115710511F487
:1042400080E016C04115510591F0040F151FB8010B
:104250000E947B208823A1F3288139818C819D8154
:10426000B701820F931F0E94F83D1D830C8381E0EC
:10427000DF91CF911F910F91FF90EF900895FB0177
:1042800044815581608171810C9413216115710500
:1042900059F0FB0101900020E9F7AF0141505109AD
:1042A000461B570B0C94132180E008950C94BB3BE4
:1042B0000C94BB3B0C94533C1F920F920FB60F9281
:1042C00011242F933F938F939F93AF93BF9380912C
:1042D000CD099091CE09A091CF09B091D00930912C
:1042E000CC0923E0230F2D3720F40196A11DB11D29
:1042F00005C026E8230F0296A11DB11D2093CC090D
:104300008093CD099093CE09A093CF09B093D009A3
:104310008091D1099091D209A091D309B091D4098B
:104320000196A11DB11D8093D1099093D209A0934C
:10433000D309B093D409BF91AF919F918F913F91D1
:104340002F910F900FBE0F901F9018952FB7F894D4
:104350006091CD097091CE098091CF099091D009DB
:104360002FBF08953FB7F8948091D1099091D20959
:10437000A091D309B091D40926B5A89B05C02F3FC1
:1043800019F00196A11DB11D3FBF6627782F892F17
:104390009A2F620F711D811D911D42E0660F771FDC
:1043A000881F991F4A95D1F70895CF92DF92EF9217
:1043B000FF92CF93DF936B017C010E94B221EB014E
:1043C000C114D104E104F10489F00E941C390E9457
:1043D000B2216C1B7D0B683E734090F381E0C81ADC
:1043E000D108E108F108C851DC4FEACFDF91CF9145
:1043F000FF90EF90DF90CF900895019739F0880FEC
:10440000991F880F991F02970197F1F708957894E3
:1044100084B5826084BD84B5816084BD85B58260C9
:1044200085BD85B5816085BDEEE6F0E08081816067
:104430008083E1E8F0E01082808182608083808167
:1044400081608083E0E8F0E0808181608083E1EB3F
:10445000F0E0808184608083E0EBF0E08081816027
:104460008083E1E9F0E080818260808380818160E7
:104470008083E0E9F0E0808181608083E1EAF0E020
:10448000808182608083808181608083E0EAF0E0C7
:10449000808181608083E1E2F1E0808182608083BD
:1044A000808181608083E0E2F1E0808181608083AF
:1044B000EAE7F0E08081846080838081826080838D
:1044C0008081816080838081806880831092C100B8
:1044D000089590E0FC013197E231F10508F04CC0FD
:1044E000EE58FF4F0C947839809180008F7703C08D
:1044F000809180008F7D809380000895809180005E
:10450000877FF9CF84B58F7702C084B58F7D84BD56
:1045100008958091B0008F7703C08091B0008F7DA7
:104520008093B0000895809190008F7707C08091AC
:1045300090008F7D03C080919000877F80939000D2
:1045400008958091A0008F7707C08091A0008F7D93
:1045500003C08091A000877F8093A0000895809180
:1045600020018F7707C0809120018F7D03C080914B
:104570002001877F809320010895CF93DF9390E0FF
:10458000FC01E45CFB4F2491FC01EE57FB4F84914E
:10459000882349F190E0880F991FFC01E450FB4FFC
:1045A000A591B4918E519B4FFC01C591D4919FB7B9
:1045B000611108C0F8948C91209582238C93888196
:1045C00082230AC0623051F4F8948C91322F3095D6
:1045D00083238C938881822B888304C0F8948C91E8
:1045E000822B8C939FBFDF91CF9108950F931F93E0
:1045F000CF93DF931F92CDB7DEB7282F30E0F901BC
:10460000EA50FC4F8491F901E45CFB4F1491F901ED
:10461000EE57FB4F04910023C9F0882321F06983F2
:104620000E9469226981E02FF0E0EE0FFF1FEE513A
:10463000FB4FA591B4919FB7F8948C91611103C081
:104640001095812301C0812B8C939FBF0F90DF9128
:10465000CF911F910F910895CF93DF93282F30E0D2
:10466000F901EA50FC4F8491F901E45CFB4FD491CD
:10467000F901EE57FB4FC491CC2391F081110E94B8
:104680006922EC2FF0E0EE0FFF1FE853FB4FA591DE
:10469000B4912C912D2381E090E021F480E002C0C0
:1046A00080E090E0DF91CF9108958091050A90E03D
:1046B0002091060A821B910908952091060A809193
:1046C000050A281750F4E22FF0E0E95FF54F8081EA
:1046D00090E02F5F2093060A08958FEF9FEF0895D3
:1046E000E091060A8091050AE81730F4F0E0E95FEE
:1046F000F54F808190E008958FEF9FEF0895089522
:10470000CF92DF92EF92FF920F931F93CF93DF939D
:104710007C01CB018A012091E109222389F0EB0180
:104720006B01C40ED51ECC15DD0569F06991D7016A
:10473000ED91FC910190F081E02DC7011995F3CF27
:10474000642F0E94E124C801DF91CF911F910F9146
:10475000FF90EF90DF90CF900895CF93DF931F925B
:10476000CDB7DEB769832091E1092223D1F02091F2
:10477000E209203240F021E030E0FC013383228363
:1047800080E090E015C08091E309E82FF0E0EC5163
:10479000F64F998190838F5F8093E3098093E209BC
:1047A00005C061E0CE0101960E94E12481E090E025
:1047B0000F90DF91CF910895FC011382128248EE91
:1047C00053E060E070E044835583668377838FE530
:1047D00096E09183808308951092060A1092050A4C
:1047E0001092E3091092E2090C942C24862F413296
:1047F00008F040E267E07AE00E944A241092060A3C
:104800008093050A089521E00C94F62381E08093BB
:10481000E1096093040A1092E3091092E2090895F5
:104820000C9406240F93062F21E04091E20964EED8
:1048300079E08091040A0E948E241092E30910927C
:10484000E2091092E1090F91089561E00C9412249D
:1048500085ED99E00C94DC231092940A81E080931A
:10486000920A1092910A61E084E10E94F62261E0CE
:1048700085E10E94F622E9EBF0E080818E7F808363
:1048800080818D7F808380E28093B80085E480936F
:10489000BC000895413208F03FC09091940A9111F4
:1048A000FCCF91E09093940A2093920A2FEF2093EB
:1048B000270A10926C0A240F20936B0A9093930A94
:1048C0009091930A880F892B8093930A8091910A83
:1048D000813041F41092910A8091930A8093BB0039
:1048E00085EC01C085EE8093BC008091940A8130F4
:1048F000E1F380916C0A841710F440916C0A2DE664
:104900003AE0FB01D9018A2F821B841718F48D919C
:104910008193F9CF842F089580E008950F93413259
:1049200008F046C09091940A9111FCCF92E09093C8
:10493000940A0093920A9FEF9093270A10926C0AB0
:1049400040936B0AFB016DE67AE0DB019A2F961B20
:10495000941718F491919D93F9CF1092930A909126
:10496000930A880F892B8093930A8091910A813052
:1049700041F41092910A8091930A8093BB0085ECD8
:1049800001C085EE8093BC00222321F08091940A1F
:104990008230E1F38091270A8F3F61F08091270AEE
:1049A000803251F08091270A803341F483E007C0C0
:1049B00081E005C080E003C082E001C084E00F9187
:1049C0000895613298F42091940A243089F4609318
:1049D000490AFC018BE49AE0DC012A2F281B2617E8
:1049E00018F421912D93F9CF80E0089581E0089586
:1049F00082E0089585ED8093BC008091BC0084FD29
:104A0000FCCF1092940A089585EC8093BC0010921C
:104A1000940A08951F920F920FB60F9211240BB6AD
:104A20000F922F933F934F935F936F937F938F9347
:104A30009F93AF93BF93EF93FF938091B900887FCB
:104A4000803609F49CC068F5883209F45BC090F4A4
:104A5000803109F454C038F4882309F4F5C0883053
:104A600009F44DC0F5C0883109F44CC0803209F416
:104A70005DC0EEC0803409F468C048F4803309F4A6
:104A800055C0883309F0E4C08093270AA8C0803558
:104A900009F44FC0883509F45DC0883409F0D8C0E6
:104AA000D5C0883909F4C6C0A8F4883709F467C0AE
:104AB00038F4883609F463C0803709F460C0C8C090
:104AC000883809F4B7C0803909F45FC0803809F02C
:104AD000BFC05BC0803B09F485C038F4803A09F45C
:104AE00066C0883A09F47EC0B3C0803C09F4A6C011
:104AF000883C09F4A3C0883B09F489C0A9C080910F
:104B0000930A10C090916C0A80916B0A981770F507
:104B1000E0916C0A81E08E0F80936C0AF0E0E3591B
:104B2000F54F80818093BB0085EC85C08093270A78
:104B30008DC0E0916C0A81E08E0F80936C0A8091A9
:104B4000BB00F0E0E359F54F808390916C0A8091AF
:104B50006B0A6DC0E0916C0A81E08E0F80936C0A45
:104B60008091BB00F0E0E359F54F80838091920A79
:104B700081116CC081E08093910A84EA60C083E077
:104B80008093940A1092280ACFCF8091280A80320D
:104B900008F050C0E091280A81E08E0F8093280A27
:104BA0008091BB00F0E0E75DF54F8083BDCF809141
:104BB000280A803230F4E091280AF0E0E75DF54FF2
:104BC00010820E94FA246091280A70E0E0918D0A18
:104BD000F0918E0A89E29AE019951092280A0E94B3
:104BE000042536C084E08093940A10924A0A1092F9
:104BF000490AE0918F0AF091900A19958091490A2B
:104C0000811105C081E08093490A10924B0AE0911E
:104C10004A0A81E08E0F80934A0AF0E0E55BF54F87
:104C200080818093BB0090914A0A8091490A98172D
:104C300008F47ACF85E88093BC000AC085EC8093A5
:104C4000BC001092940A04C01092270A0E94FA2411
:104C5000FF91EF91BF91AF919F918F917F916F9154
:104C60005F914F913F912F910F900BBE0F900FBE10
:104C70000F901F901895CF93DF931F92CDB7DEB79B
:104C80006983DC01ED91FC910280F381E02D41E02C
:104C900050E0BE016F5F7F4F19950F90DF91CF916C
:104CA0000895CF93DF93EC01898D9A8D009759F089
:104CB000FC01138212820E94C132E98DFA8D228199
:104CC0003381232B31F081E090E09B838A8380E065
:104CD00090E0DF91CF910895FC01818D928D009736
:104CE00011F00C9461300895CF93DF931F92CDB7EC
:104CF000DEB741E050E0BE016F5F7F4F0E94722E31
:104D0000019719F4898190E002C08FEF9FEF0F9017
:104D1000DF91CF910895FC01818D928D009711F064
:104D20000C9474268FEF9FEF08950F931F93CF93EA
:104D3000DF938C01FC01818D928D0097B9F00E9468
:104D40007426EC018F3FFFEF9F0799F0F801818DEA
:104D5000928DFC01428553856485758541505109CA
:104D6000610971090E94C52FCE0105C080E090E065
:104D700002C08FEF9FEFDF91CF911F910F910895A8
:104D8000CF92DF92EF92FF920F931F93CF93DF9317
:104D9000EC017B016A011B821A8208EE13E020E01D
:104DA00030E00C831D832E833F838FE696E099834A
:104DB00088838DE190E00E94BB3B9A8F898F00979A
:104DC00079F02DE1F701DC0101900D922A95E1F7D0
:104DD0004CE050E0B601CE010C960E94FF3D188ECB
:104DE000DF91CF911F910F91FF90EF90DF90CF90C7
:104DF0000895FC011382128248EE53E060E070E0F7
:104E000044835583668377838FE696E0918380831E
:104E1000128E118E14860895FC01818D928D00975B
:104E200029F00E94C52F91E0811101C090E0892FE7
:104E30000895DC015996ED91FC915A97309729F02D
:104E4000628573858485958508956FEF7FEFCB012B
:104E50000895DC015996ED91FC915A97309729F00D
:104E60006389748985899689089560E070E0CB0133
:104E70000895CF92DF92EF92FF92CF93DF93EC01F0
:104E8000898D9A8D892BD9F0CE010E9429276B013B
:104E90007C01CE010E941927A7019601261B370B22
:104EA000480B590BDA01C901811530E89307A105B8
:104EB000B10538F08FEF9FE7A0E0B0E002C080E0DE
:104EC00090E0DF91CF91FF90EF90DF90CF90089529
:104ED000CF93DF93EC01898D9A8D009741F00E946A
:104EE000A830898D9A8D0E94533C1A8E198EDF91BD
:104EF000CF910895DC015996ED91FC915A97309726
:104F000021F081E09581911101C080E008951F9307
:104F1000CF93DF93CDB7DEB76D970FB6F894DEBFB2
:104F20000FBECDBFAB011C821B8221E836E03A8365
:104F300029831E8221E0BC01CE0101960E94DC3152
:104F400011E0811102C010E004C0CE0101960E9460
:104F5000A830812F6D960FB6F894DEBF0FBECDBF7F
:104F6000DF91CF911F910895CF93DF93FB012081B3
:104F70003181FC01E20FF31FE081EF3211F42F5F6A
:104F80003F4FDA01E0E0F0E0EC01C20FD31FC8812F
:104F9000CF3249F0CC2339F031962F5F3F4FCD937C
:104FA000EC30F10589F7E40FF51F1082FC01E20FE8
:104FB000F31F40814F3211F42F5F3F4FFB013183CC
:104FC0002083FC01E20FF31F81E09081911101C069
:104FD00080E0DF91CF9108954F925F926F927F9220
:104FE0008F929F92AF92BF92CF92DF92EF92FF92F9
:104FF0000F931F93CF93DF93CDB7DEB7C954D10979
:105000000FB6F894DEBF0FBECDBF5C016B013A0155
:10501000490119A218A281E896E09F8F8E8F1BA2EA
:105020001C821B829A8389831E822A961FAE1EAE23
:105030002A978B017E018EE1E80EF11C44244394F3
:10504000AE01455C5F4FBE01685B7F4FC5010E94AA
:10505000B427582E482F44259401BE01655C7F4F2C
:10506000C801F3011995811108C00C151D0519F02F
:10507000C8010E94A83080E027C05520B9F021E087
:10508000AE01455C5F4FB801C7010E94DC31582E6C
:105090000C151D0599F0C8010E94A830552059F340
:1050A000902F812F8701E92EF82ECACF0C151D05F0
:1050B00019F0C8010E94A83081E006C08823D9F207
:1050C0008E010F5F1F4FECCFC75BDF4F0FB6F89419
:1050D000DEBF0FBECDBFDF91CF911F910F91FF902B
:1050E000EF90DF90CF90BF90AF909F908F907F9088
:1050F0006F905F904F9008950F931F93CF93DF931E
:10510000EC01462F61E00E94382B811102C080E043
:105110001DC08E01045F1F4F41E0BE01C8010E9407
:105120000838882359F0B801CE018A960E94222EB1
:1051300091E0811101C090E0892F08C040E0BE01DC
:10514000C8010E940838882311F3EDCFDF91CF9179
:105150001F910F910895FC01DB0112968D919C9196
:1051600013979383828381E896E0918380831496DA
:105170008C911497848315968C9115978583169638
:105180004D915D916D917C9119974683578360870E
:1051900071871A964D915D916D917C911D97428713
:1051A0005387648775871E964D915D916D917C91B3
:1051B000519746875787608B718B52968C91529787
:1051C000828B53964D915D916D917C915697438B57
:1051D000548B658B768B57964D915D916D917C913B
:1051E0005A97478B508F618F728F5B968D919C91F0
:1051F0005C97948F838F08954F925F926F927F9206
:105200008F929F92AF92BF92CF92DF92EF92FF92D6
:105210000F931F93CF93DF93CDB7DEB7C754D10958
:105220000FB6F894DEBF0FBECDBF6C014A01390145
:10523000665D7F4F5E018EE1A80EB11CC5010E9424
:10524000AB281C821B8281E896E09A8389831E82A8
:105250008401FE0131967F015A2C4B2C6FE270E0E5
:10526000C8010E94ED3D0097E9F1F80120812F323D
:1052700019F40F5F1F4FF2CF801B8D3008F08CE0C8
:10528000A82EB12CA501B801CE01CB960E94FF3DFE
:10529000EBE3F0E0EC0FFD1FEA0DFB1D1082C701F0
:1052A0000E94A83021E0AE01455C5F4F652D742D52
:1052B000C7010E94DC31811109C0F60113821282FC
:1052C00081E896E091838083158216C00A0D1B1D2C
:1052D000852D942D0E94A830C2015E2C4F2CE92E02
:1052E000F82EBCCF08191909F30111830083652D2D
:1052F000742DC6010E94AB28C601C95BDF4F0FB6F3
:10530000F894DEBF0FBECDBFDF91CF911F910F91FB
:10531000FF90EF90DF90CF90BF90AF909F908F90D5
:105320007F906F905F904F900895BF92CF92DF92E1
:10533000EF92FF920F931F93CF93DF93CDB7DEB71A
:10534000C955D1090FB6F894DEBF0FBECDBF7C01A1
:105350006A01B22E9E01285A3F4FCE01CB960E9481
:10536000FC286A960EAD1FAD6A970C0D1D1DF80145
:10537000808181110AC0BE01655C7F4FCE0101961C
:105380000E94AB284BE756E03EC019A218A281E864
:1053900096E09F8F8E8F1BA221968FAD2197811152
:1053A00004C0C7010E94F92634C082502B2DA801E9
:1053B000823048F46FEB7AE0CE014E960E94DC31E9
:1053C00081110EC0EECFBE01655C7F4FCE014E96BF
:1053D0000E94DC31882329F3CE01CB960E94A830AD
:1053E0008B2D867041F049A95AA96BA97CA9CE01E1
:1053F0004E960E94C52FBE01625E7F4FCE01019680
:105400000E94AB28A801BE016F5F7F4FC7010E94B9
:10541000C026C701C75ADF4F0FB6F894DEBF0FBED4
:10542000CDBFDF91CF911F910F91FF90EF90DF9053
:10543000CF90BF900895FB01BC01665D7F4F20E0D7
:1054400030E047E857E2CF010C94EC2710929A0A1B
:1054500010929B0A10929E0A1092A00A82E090E09D
:10546000A0E0B0E08093A10A9093A20AA093A30ABF
:10547000B093A40A1092B80A1092C20A1092C10AFC
:1054800081E896E09093C00A8093BF0A1092C40A04
:1054900008959FB7F8942091EC0C8091EA0C21308C
:1054A00019F48DBB9FBF08958FBF08952091EC0C18
:1054B000222399F03FB7F8942091EC0C213059F455
:1054C0002DB32093EA0C4DB32091EB0C20952423AF
:1054D0002DBB3FBF02C03093EA0C8CBD9DBD08952B
:1054E0008EBD00000DB407FEFDCF8EB508958FEF81
:1054F0000C94702A61E0FC0184810E94F622809164
:10550000DE0A882339F01092DE0A8091EC0C8111BA
:105510000C94492A0895CF93DF93EC018091DE0A21
:10552000811109C081E08093DE0A8091DF0A9091A9
:10553000E00A0E94562A60E08C81DF91CF910C94A2
:10554000F622CF93DF93EC018E81882389F08F813F
:1055500098859C012F5F3F4F38872F838230924080
:1055600018F40E94772AF3CFCE010E947A2A1E8275
:10557000DF91CF9108950F931F93CF93DF93EB01AA
:105580000E94A6218B010E94772A8F3F49F00E943A
:10559000A621601B710B6C177D07A8F380E001C08A
:1055A00081E0DF91CF911F910F910895CF92DF920B
:1055B000FF920F931F93CF93DF9300D01F92CDB72D
:1055C000DEB76C01F62E29833A834B835C830E94FD
:1055D000A12AC6010E948B2A6CE271E0C6010E94DA
:1055E000BB2A8F2D80640E94702A08E110E05C8144
:1055F0004B813A812981DA01C901002E04C0B69598
:10560000A795979587950A94D2F729833A834B8378
:105610005C830E94702A0850110929813A814B81CC
:105620005C81083F8FEF180731F7FF2029F0E8E091
:10563000FE1621F08FEF03C085E901C087E80E94C4
:10564000702A10E00E94772AF601828787FF04C043
:105650001F3F11F01F5FF6CF0F900F900F900F902C
:10566000DF91CF911F910F91FF90DF90CF90089520
:10567000AF92BF92CF92DF92EF92FF920F931F9360
:10568000CF93DF93EC01B62E1B8619861E821D82F6
:105690004C830E94A6218B0161E08C810E94BD2277
:1056A00061E08C810E94F6220E941D3982E5809380
:1056B000DF0A1092E00A8091DF0A9091E00A0E94CE
:1056C000562A2AE0A22E8FEF0E94702AAA94D9F7B8
:1056D0008091EC0C81110E94492ACE010E948B2AF4
:1056E00020E030E0A90160E0CE010E94D62AF82E29
:1056F0008A8781E0F81649F00E94A621601B710B91
:10570000613D774068F381E04BC02AEA31E040E038
:1057100050E068E0CE010E94D62A82FF02C0FB86DC
:105720000DC094E0F92E0E94772A8A87FA94D9F75F
:105730008A3A11F082E034C082E08B878B85823018
:1057400031F4C12CD12CE12C80E4F82E03C0C12C03
:10575000D12C760120E030E0A90167E3CE010E9460
:10576000D62AA701960169E2CE010E94D62A8A872D
:10577000882349F00E94A621601B710B613D774090
:1057800048F388E00DC08B858230E1F420E030E002
:10579000A9016AE3CE010E94D62A882331F086E06F
:1057A0008D83CE010E947A2A19C00E94772A807CBC
:1057B000803C11F483E08B870E94772A0E94772A2D
:1057C0000E94772ACE010E947A2A86E08B1520F467
:1057D00086E18D83A12C02C0AA24A3948A2DDF9197
:1057E000CF911F910F91FF90EF90DF90CF90BF90DE
:1057F000AF9008950F931F93CF93DF93EC010E9416
:10580000A6218B010E94772A8A878F3F49F40E9444
:10581000A621601B710B6D327140A0F38FE003C0B5
:105820008E3F39F08DE08D83CE010E947A2A80E090
:1058300001C081E0DF91CF911F910F910895CF9228
:10584000DF92EF92FF920F931F93CF93DF93EC01C0
:1058500069010115110509F462C0C801820F931F87
:105860008130924008F05DC08E81882371F088817C
:105870009981AA81BB81481759076A077B0729F4D8
:105880008F819885C816D90610F5488359836A8395
:105890007B838B85833039F039E0440F551F661FB9
:1058A000771F3A95D1F79A01AB0161E1CE010E94D1
:1058B000D62A882319F083E08D8333C0CE010E945D
:1058C000FA2B882371F118861F8281E08E838F81E5
:1058D00098858C159D0540F40E94772A8F819885C4
:1058E000019698878F83F3CF6701E00EF11ECE14E7
:1058F000DF0431F00E94772AF60181936F01F7CF20
:105900008F819885800F911F98878F832985222307
:1059100019F08115924018F0CE010E94A12A81E071
:1059200004C0CE010E947A2A80E0DF91CF911F91BE
:105930000F91FF90EF90DF90CF900895EF92FF923C
:105940000F931F93790100E012E020E030E00E9405
:105950001F2C1F910F91FF90EF900895CF92DF922F
:10596000EF92FF920F931F93CF93DF931F921F929B
:10597000CDB7DEB78C01862F49835A830E94702AE7
:105980004981C42E5A81D52EE12CF12CF60181914A
:105990006F010E94702AFFEFEF1AFF0AE11482E004
:1059A000F806A1F78FEF0E94702A8FEF0E94702AED
:1059B0000E94772AF80182878F71853039F081E162
:1059C0008583C8010E947A2A80E001C081E00F909F
:1059D0000F90DF91CF911F910F91FF90EF90DF908B
:1059E000CF9008950F931F93CF93DF93EC0189011C
:1059F000411551056105710511F482E132C08B85B5
:105A0000833039F089E0440F551F661F771F8A9550
:105A1000D1F79A01AB0168E1CE010E94D62A882312
:105A200011F084E01EC0A8016EEFCE010E94AE2CE2
:105A30008823C1F068E572E0CE010E94BB2A811183
:105A400002C085E10EC020E030E0A9016DE0CE018A
:105A50000E94D62A811104C00E94772A882339F037
:105A600084E18D83CE010E947A2A80E004C0CE01B9
:105A70000E947A2A81E0DF91CF911F910F910895C2
:105A800080E58093DF0A1092E00A0895CF93DF93B8
:105A9000EC019C012A5F3F4F41E050E060E070E084
:105AA0008B8D9C8D0E949D368823A1F04F89588D47
:105AB000698D7A8D452B462B472B71F44E815F8182
:105AC000688579854F8B588F698F7A8F8C81806834
:105AD0008C8302C080E001C081E0DF91CF91089506
